{
  "contractName": "RaffleCampaign",
  "abi": [
    {
      "inputs": [
        {
          "internalType": "string",
          "name": "_raffleName",
          "type": "string"
        },
        {
          "internalType": "string",
          "name": "_influencer",
          "type": "string"
        },
        {
          "internalType": "string",
          "name": "_raffleDescription",
          "type": "string"
        },
        {
          "internalType": "uint256",
          "name": "_campaignStart",
          "type": "uint256"
        },
        {
          "internalType": "uint256",
          "name": "_campaignEnd",
          "type": "uint256"
        },
        {
          "internalType": "uint256",
          "name": "_ticketPrice",
          "type": "uint256"
        },
        {
          "internalType": "uint256",
          "name": "_totalTickets",
          "type": "uint256"
        },
        {
          "internalType": "uint256",
          "name": "_totalWinners",
          "type": "uint256"
        },
        {
          "internalType": "address",
          "name": "_ticketNFT",
          "type": "address"
        }
      ],
      "stateMutability": "nonpayable",
      "type": "constructor"
    },
    {
      "anonymous": false,
      "inputs": [
        {
          "indexed": false,
          "internalType": "bool",
          "name": "finished",
          "type": "bool"
        },
        {
          "indexed": false,
          "internalType": "address",
          "name": "tokenaddress",
          "type": "address"
        }
      ],
      "name": "CreateCampaign",
      "type": "event"
    },
    {
      "anonymous": false,
      "inputs": [
        {
          "indexed": false,
          "internalType": "bool",
          "name": "finished",
          "type": "bool"
        }
      ],
      "name": "DeleteCampaign",
      "type": "event"
    },
    {
      "anonymous": false,
      "inputs": [
        {
          "indexed": true,
          "internalType": "address",
          "name": "previousOwner",
          "type": "address"
        },
        {
          "indexed": true,
          "internalType": "address",
          "name": "newOwner",
          "type": "address"
        }
      ],
      "name": "OwnershipTransferred",
      "type": "event"
    },
    {
      "anonymous": false,
      "inputs": [
        {
          "indexed": false,
          "internalType": "uint256",
          "name": "ticketNum",
          "type": "uint256"
        },
        {
          "indexed": false,
          "internalType": "uint256",
          "name": "tokenId",
          "type": "uint256"
        },
        {
          "indexed": false,
          "internalType": "string",
          "name": "tokenUri",
          "type": "string"
        }
      ],
      "name": "TicketBought",
      "type": "event"
    },
    {
      "anonymous": false,
      "inputs": [
        {
          "indexed": false,
          "internalType": "uint256",
          "name": "ticketId",
          "type": "uint256"
        },
        {
          "indexed": false,
          "internalType": "uint256",
          "name": "ticketNum",
          "type": "uint256"
        }
      ],
      "name": "TicketDrawn",
      "type": "event"
    },
    {
      "inputs": [],
      "name": "campaignEnd",
      "outputs": [
        {
          "internalType": "uint256",
          "name": "",
          "type": "uint256"
        }
      ],
      "stateMutability": "view",
      "type": "function",
      "constant": true
    },
    {
      "inputs": [],
      "name": "campaignFinished",
      "outputs": [
        {
          "internalType": "bool",
          "name": "",
          "type": "bool"
        }
      ],
      "stateMutability": "view",
      "type": "function",
      "constant": true
    },
    {
      "inputs": [],
      "name": "campaignStart",
      "outputs": [
        {
          "internalType": "uint256",
          "name": "",
          "type": "uint256"
        }
      ],
      "stateMutability": "view",
      "type": "function",
      "constant": true
    },
    {
      "inputs": [
        {
          "internalType": "uint256",
          "name": "",
          "type": "uint256"
        }
      ],
      "name": "drawnTickets",
      "outputs": [
        {
          "internalType": "uint256",
          "name": "",
          "type": "uint256"
        }
      ],
      "stateMutability": "view",
      "type": "function",
      "constant": true
    },
    {
      "inputs": [],
      "name": "influencer",
      "outputs": [
        {
          "internalType": "string",
          "name": "",
          "type": "string"
        }
      ],
      "stateMutability": "view",
      "type": "function",
      "constant": true
    },
    {
      "inputs": [],
      "name": "manager",
      "outputs": [
        {
          "internalType": "address",
          "name": "",
          "type": "address"
        }
      ],
      "stateMutability": "view",
      "type": "function",
      "constant": true
    },
    {
      "inputs": [],
      "name": "maxBuyAmount",
      "outputs": [
        {
          "internalType": "uint256",
          "name": "",
          "type": "uint256"
        }
      ],
      "stateMutability": "view",
      "type": "function",
      "constant": true
    },
    {
      "inputs": [],
      "name": "owner",
      "outputs": [
        {
          "internalType": "address",
          "name": "",
          "type": "address"
        }
      ],
      "stateMutability": "view",
      "type": "function",
      "constant": true
    },
    {
      "inputs": [
        {
          "internalType": "address",
          "name": "",
          "type": "address"
        }
      ],
      "name": "ownerTicketCount",
      "outputs": [
        {
          "internalType": "uint256",
          "name": "",
          "type": "uint256"
        }
      ],
      "stateMutability": "view",
      "type": "function",
      "constant": true
    },
    {
      "inputs": [],
      "name": "raffleDescription",
      "outputs": [
        {
          "internalType": "string",
          "name": "",
          "type": "string"
        }
      ],
      "stateMutability": "view",
      "type": "function",
      "constant": true
    },
    {
      "inputs": [],
      "name": "raffleName",
      "outputs": [
        {
          "internalType": "string",
          "name": "",
          "type": "string"
        }
      ],
      "stateMutability": "view",
      "type": "function",
      "constant": true
    },
    {
      "inputs": [],
      "name": "renounceOwnership",
      "outputs": [],
      "stateMutability": "nonpayable",
      "type": "function"
    },
    {
      "inputs": [
        {
          "internalType": "uint256",
          "name": "",
          "type": "uint256"
        }
      ],
      "name": "ticketOwner",
      "outputs": [
        {
          "internalType": "address",
          "name": "",
          "type": "address"
        }
      ],
      "stateMutability": "view",
      "type": "function",
      "constant": true
    },
    {
      "inputs": [],
      "name": "ticketPrice",
      "outputs": [
        {
          "internalType": "uint256",
          "name": "",
          "type": "uint256"
        }
      ],
      "stateMutability": "view",
      "type": "function",
      "constant": true
    },
    {
      "inputs": [
        {
          "internalType": "uint256",
          "name": "",
          "type": "uint256"
        }
      ],
      "name": "tickets",
      "outputs": [
        {
          "internalType": "uint256",
          "name": "",
          "type": "uint256"
        }
      ],
      "stateMutability": "view",
      "type": "function",
      "constant": true
    },
    {
      "inputs": [],
      "name": "totalTickets",
      "outputs": [
        {
          "internalType": "uint256",
          "name": "",
          "type": "uint256"
        }
      ],
      "stateMutability": "view",
      "type": "function",
      "constant": true
    },
    {
      "inputs": [],
      "name": "totalWinners",
      "outputs": [
        {
          "internalType": "uint256",
          "name": "",
          "type": "uint256"
        }
      ],
      "stateMutability": "view",
      "type": "function",
      "constant": true
    },
    {
      "inputs": [
        {
          "internalType": "address",
          "name": "newOwner",
          "type": "address"
        }
      ],
      "name": "transferOwnership",
      "outputs": [],
      "stateMutability": "nonpayable",
      "type": "function"
    },
    {
      "inputs": [
        {
          "internalType": "address",
          "name": "",
          "type": "address"
        },
        {
          "internalType": "address",
          "name": "",
          "type": "address"
        },
        {
          "internalType": "uint256",
          "name": "",
          "type": "uint256"
        },
        {
          "internalType": "bytes",
          "name": "",
          "type": "bytes"
        }
      ],
      "name": "onERC721Received",
      "outputs": [
        {
          "internalType": "bytes4",
          "name": "",
          "type": "bytes4"
        }
      ],
      "stateMutability": "pure",
      "type": "function",
      "constant": true
    },
    {
      "inputs": [
        {
          "internalType": "uint256",
          "name": "_ticketNum",
          "type": "uint256"
        },
        {
          "internalType": "string",
          "name": "_tokenUri",
          "type": "string"
        }
      ],
      "name": "buyTicket",
      "outputs": [],
      "stateMutability": "nonpayable",
      "type": "function"
    },
    {
      "inputs": [],
      "name": "deleteCampaign",
      "outputs": [],
      "stateMutability": "nonpayable",
      "type": "function"
    },
    {
      "inputs": [
        {
          "internalType": "uint256",
          "name": "_ticketNum",
          "type": "uint256"
        }
      ],
      "name": "manualDrawTicket",
      "outputs": [],
      "stateMutability": "nonpayable",
      "type": "function"
    },
    {
      "inputs": [],
      "name": "autoDrawnTicket",
      "outputs": [],
      "stateMutability": "nonpayable",
      "type": "function"
    },
    {
      "inputs": [],
      "name": "getCurrentWinner",
      "outputs": [
        {
          "internalType": "uint256",
          "name": "",
          "type": "uint256"
        }
      ],
      "stateMutability": "view",
      "type": "function",
      "constant": true
    },
    {
      "inputs": [],
      "name": "getCurrentWinnerAddress",
      "outputs": [
        {
          "internalType": "address",
          "name": "",
          "type": "address"
        }
      ],
      "stateMutability": "view",
      "type": "function",
      "constant": true
    },
    {
      "inputs": [],
      "name": "getBoughtTicketsCount",
      "outputs": [
        {
          "internalType": "uint256",
          "name": "",
          "type": "uint256"
        }
      ],
      "stateMutability": "view",
      "type": "function",
      "constant": true
    },
    {
      "inputs": [],
      "name": "getUndrawnTicketsCount",
      "outputs": [
        {
          "internalType": "uint256",
          "name": "",
          "type": "uint256"
        }
      ],
      "stateMutability": "view",
      "type": "function",
      "constant": true
    },
    {
      "inputs": [],
      "name": "getDrawnTicketsCount",
      "outputs": [
        {
          "internalType": "uint256",
          "name": "",
          "type": "uint256"
        }
      ],
      "stateMutability": "view",
      "type": "function",
      "constant": true
    },
    {
      "inputs": [
        {
          "internalType": "address",
          "name": "_owner",
          "type": "address"
        }
      ],
      "name": "getOwnerTicketsCount",
      "outputs": [
        {
          "internalType": "uint256",
          "name": "",
          "type": "uint256"
        }
      ],
      "stateMutability": "view",
      "type": "function",
      "constant": true
    },
    {
      "inputs": [
        {
          "internalType": "address",
          "name": "_owner",
          "type": "address"
        }
      ],
      "name": "getOwnerTicketsPrice",
      "outputs": [
        {
          "internalType": "uint256",
          "name": "",
          "type": "uint256"
        }
      ],
      "stateMutability": "view",
      "type": "function",
      "constant": true
    },
    {
      "inputs": [],
      "name": "getRemainTickets",
      "outputs": [
        {
          "internalType": "uint256",
          "name": "",
          "type": "uint256"
        }
      ],
      "stateMutability": "view",
      "type": "function",
      "constant": true
    },
    {
      "inputs": [],
      "name": "getBoughtTicketsPrice",
      "outputs": [
        {
          "internalType": "uint256",
          "name": "",
          "type": "uint256"
        }
      ],
      "stateMutability": "view",
      "type": "function",
      "constant": true
    },
    {
      "inputs": [],
      "name": "getTotalTicketsPrice",
      "outputs": [
        {
          "internalType": "uint256",
          "name": "",
          "type": "uint256"
        }
      ],
      "stateMutability": "view",
      "type": "function",
      "constant": true
    }
  ],
  "bytecode": "0x60806040526123286008553480156200001757600080fd5b5060405162001a0d38038062001a0d8339810160408190526200003a9162000415565b62000045336200024f565b8486106200009a5760405162461bcd60e51b815260206004820152601c60248201527f496e70757420636f72726563742063616d706169676e2074696d652e0000000060448201526064015b60405180910390fd5b600183118015620000ac57506161a883105b620001045760405162461bcd60e51b815260206004820152602160248201527f546f74616c207469636b6574732072616e67652069732031207e2032353030306044820152601760f91b606482015260840162000091565b8183116200016e5760405162461bcd60e51b815260206004820152603060248201527f546f74616c207469636b6574732073686f756c64206265206d6f72652074686160448201526f37103a37ba30b6103bb4b73732b9399760811b606482015260840162000091565b600d80546001600160a81b03191661010033021790558851620001999060029060208c01906200029f565b508751620001af9060039060208b01906200029f565b508651620001c59060049060208a01906200029f565b506005869055600685905560078490556009839055600a829055600180546001600160a01b0319166001600160a01b038316908117909155600d546040805160ff9092161515825260208201929092527f7bff12e4d3c7d69dee664ce50468431de846f3872156c608ea42011d9f015af9910160405180910390a150505050505050505062000539565b600080546001600160a01b038381166001600160a01b0319831681178455604051919092169283917f8be0079c531659141344cd1fd0a4f28419497f9722a3daafe3b4186f6b6457e09190a35050565b828054620002ad90620004e6565b90600052602060002090601f016020900481019282620002d157600085556200031c565b82601f10620002ec57805160ff19168380011785556200031c565b828001600101855582156200031c579182015b828111156200031c578251825591602001919060010190620002ff565b506200032a9291506200032e565b5090565b5b808211156200032a57600081556001016200032f565b80516001600160a01b03811681146200035d57600080fd5b919050565b600082601f83011262000373578081fd5b81516001600160401b038082111562000390576200039062000523565b604051601f8301601f19908116603f01168101908282118183101715620003bb57620003bb62000523565b81604052838152602092508683858801011115620003d7578485fd5b8491505b83821015620003fa5785820183015181830184015290820190620003db565b838211156200040b57848385830101525b9695505050505050565b60008060008060008060008060006101208a8c03121562000434578485fd5b89516001600160401b03808211156200044b578687fd5b620004598d838e0162000362565b9a5060208c01519150808211156200046f578687fd5b6200047d8d838e0162000362565b995060408c015191508082111562000493578687fd5b50620004a28c828d0162000362565b97505060608a0151955060808a0151945060a08a0151935060c08a0151925060e08a01519150620004d76101008b0162000345565b90509295985092959850929598565b600181811c90821680620004fb57607f821691505b602082108114156200051d57634e487b7160e01b600052602260045260246000fd5b50919050565b634e487b7160e01b600052604160045260246000fd5b6114c480620005496000396000f3fe608060405234801561001057600080fd5b50600436106101fb5760003560e01c806378d995a71161011a578063acf88e2c116100ad578063cb9a31ef1161007c578063cb9a31ef146103f7578063dd11247e146103ff578063f2fde38b14610408578063fa181c191461041b578063ff5bc39f14610423576101fb565b8063acf88e2c146103aa578063bb00e56f146103bd578063bcc941b6146103c5578063c2ff12fc146103ce576101fb565b80638e5b1d99116100e95780638e5b1d991461037f5780638ec8ba04146103875780639afb93cb1461038f578063a87588e7146103a2576101fb565b806378d995a71461034a5780637a26b2ae1461035257806388e765ff146103655780638da5cb5b1461036e576101fb565b80633c56af2b1161019257806356986b291161016157806356986b291461031e578063626883ec146103265780636f19ccea1461032f578063715018a614610342576101fb565b80633c56af2b1461029e578063481c6a75146102bb57806350b44712146102eb57806354fdfd4e146102fe576101fb565b8063203dcfa8116101ce578063203dcfa814610270578063244c3c2c14610285578063329bfc331461028d5780633c4f4ff414610295576101fb565b80630771f0fc146102005780630f506e941461021b5780631209b1f614610230578063150b7a0214610239575b600080fd5b61020861042b565b6040519081526020015b60405180910390f35b61022361044f565b60405161021291906112d9565b61020860075481565b61025761024736600461118d565b630a85bd0160e11b949350505050565b6040516001600160e01b03199091168152602001610212565b61028361027e366004611206565b6104dd565b005b610283610676565b6102086107e1565b61020860065481565b600d546102ab9060ff1681565b6040519015158152602001610212565b600d546102d39061010090046001600160a01b031681565b6040516001600160a01b039091168152602001610212565b6102086102f9366004611206565b61082e565b61020861030c366004611173565b600f6020526000908152604090205481565b61020861084f565b61020860055481565b61020861033d366004611173565b61086e565b61028361088d565b6102d36108c3565b610208610360366004611173565b61092c565b61020860085481565b6000546001600160a01b03166102d3565b610223610958565b610283610965565b61028361039d366004611236565b610ac1565b610223610e2a565b6102086103b8366004611206565b610e37565b610208610e47565b610208600a5481565b6102d36103dc366004611206565b600e602052600090815260409020546001600160a01b031681565b600c54610208565b61020860095481565b610283610416366004611173565b610e59565b610208610ef4565b600b54610208565b600c54600b5460009161043d91611380565b60075461044a91906113ac565b905090565b6004805461045c906113e2565b80601f0160208091040260200160405190810160405280929190818152602001828054610488906113e2565b80156104d55780601f106104aa576101008083540402835291602001916104d5565b820191906000526020600020905b8154815290600101906020018083116104b857829003601f168201915b505050505081565b6000546001600160a01b031633146105105760405162461bcd60e51b815260040161050790611323565b60405180910390fd5b600b54600111801590610524575060065442115b6105705760405162461bcd60e51b815260206004820152601a60248201527f4d616e616765722063616e27742064726177207469636b65742e0000000000006044820152606401610507565b600d5460ff1680156105945760405162461bcd60e51b8152600401610507906112ec565b6000805b600b548110156106365783600b82815481106105c457634e487b7160e01b600052603260045260246000fd5b9060005260206000200154141561062457600c600b82815481106105f857634e487b7160e01b600052603260045260246000fd5b6000918252602080832090910154835460018101855593835291209091015561062081610f06565b8091505b8061062e8161141d565b915050610598565b5060408051828152602081018590527faa8802137ab63da413d294634efd53b8bb0cf4500b3c94d83ded03c3acc33f0091015b60405180910390a1505050565b6000546001600160a01b031633146106a05760405162461bcd60e51b815260040161050790611323565b600d5460ff1680156106c45760405162461bcd60e51b8152600401610507906112ec565b600b5460011161073c5760405162461bcd60e51b815260206004820152603b60248201527f526166666c652063616d706169676e2063616e27742064656c6574652061732060448201527f6f6e65206d6f7265207469636b657473207765726520736f6c642e00000000006064820152608401610507565b600654421061079b5760405162461bcd60e51b815260206004820152602560248201527f526166666c652063616d706169676e20657870697265642063616e27742064656044820152643632ba329760d91b6064820152608401610507565b600d805460ff191660019081179091556040519081527f246e52a603125b2d7fffada429c31bf10aaaf48fea403aa68ec2fe2289b8e5a89060200160405180910390a150565b600c546000906107f057600080fd5b600c8054610800906001906113cb565b8154811061081e57634e487b7160e01b600052603260045260246000fd5b9060005260206000200154905090565b600b818154811061083e57600080fd5b600091825260209091200154905081565b600c54600b5460009161086191611380565b60095461044a91906113cb565b6001600160a01b0381166000908152600f60205260409020545b919050565b6000546001600160a01b031633146108b75760405162461bcd60e51b815260040161050790611323565b6108c16000611029565b565b600c546000906108d257600080fd5b600c8054600091906108e6906001906113cb565b8154811061090457634e487b7160e01b600052603260045260246000fd5b60009182526020808320909101548252600e905260409020546001600160a01b031691505090565b6001600160a01b0381166000908152600f602052604081205460075461095291906113ac565b92915050565b6002805461045c906113e2565b6000546001600160a01b0316331461098f5760405162461bcd60e51b815260040161050790611323565b600b546001118015906109a3575060065442115b6109ef5760405162461bcd60e51b815260206004820152601a60248201527f4d616e616765722063616e27742064726177207469636b65742e0000000000006044820152606401610507565b600d5460ff168015610a135760405162461bcd60e51b8152600401610507906112ec565b6000610a1d611079565b90506000600b8281548110610a4257634e487b7160e01b600052603260045260246000fd5b6000918252602082200154600c805460018101825592527fdf6966c971051c3d54ec59162606531493a51404a002842f56009d7e5cf4a8c79091018190559050610a8b82610f06565b60408051838152602081018390527faa8802137ab63da413d294634efd53b8bb0cf4500b3c94d83ded03c3acc33f009101610669565b60055442118015610ad3575060065442105b610b185760405162461bcd60e51b81526020600482015260166024820152752ab9b2b91031b0b713ba10313abc903a34b1b5b2ba1760511b6044820152606401610507565b600d5460ff168015610b3c5760405162461bcd60e51b8152600401610507906112ec565b6000838152600e60205260409020546001600160a01b031615610bb35760405162461bcd60e51b815260206004820152602960248201527f4f6e65207469636b65742063616e277420626520736f6c64206d6f726520746860448201526830b7103a3bb4b1b29760b91b6064820152608401610507565b600d5461010090046001600160a01b0316331415610c135760405162461bcd60e51b815260206004820152601960248201527f4d616e616765722063616e277420627579207469636b65742e000000000000006044820152606401610507565b600754600854610c239190611398565b336000908152600f602052604090205410610c975760405162461bcd60e51b815260206004820152602e60248201527f4e756d626572206f66207469636b657473206f6e6520757365722063616e206260448201526d3abc9034b9903634b6b4ba32b21760911b6064820152608401610507565b600954600b5410610cea5760405162461bcd60e51b815260206004820152601a60248201527f416c6c20746865207469636b657473207765726520736f6c642e0000000000006044820152606401610507565b600b805460018181019092557f0175b7a638427703f0dbe7bb9bbf987a2551717b34e79f33b5b1008d1fa01db9018490556000848152600e6020908152604080832080546001600160a01b031916339081179091558352600f909152902054610d5291611099565b336000908152600f602052604080822092909255600154915163fb37e88360e01b815290916001600160a01b03169063fb37e88390610d959086906004016112d9565b602060405180830381600087803b158015610daf57600080fd5b505af1158015610dc3573d6000803e3d6000fd5b505050506040513d601f19601f82011682018060405250810190610de7919061121e565b90507feb138ab883fc33f29d1cebac979616b2189405c0ca0dd99abbc041503611e986848285604051610e1c93929190611358565b60405180910390a150505050565b6003805461045c906113e2565b600c818154811061083e57600080fd5b600060095460075461044a91906113ac565b6000546001600160a01b03163314610e835760405162461bcd60e51b815260040161050790611323565b6001600160a01b038116610ee85760405162461bcd60e51b815260206004820152602660248201527f4f776e61626c653a206e6577206f776e657220697320746865207a65726f206160448201526564647265737360d01b6064820152608401610507565b610ef181611029565b50565b600c54600b5460009161044a91611380565b600b548110610f635760405162461bcd60e51b8152602060048201526024808201527f5469636b65747320617272617920696e646578206973206f7574206f6620626f6044820152633ab7321760e11b6064820152608401610507565b805b600b54610f74906001906113cb565b811015610ff057600b610f88826001611380565b81548110610fa657634e487b7160e01b600052603260045260246000fd5b9060005260206000200154600b8281548110610fd257634e487b7160e01b600052603260045260246000fd5b60009182526020909120015580610fe88161141d565b915050610f65565b50600b80548061101057634e487b7160e01b600052603160045260246000fd5b6001900381819060005260206000200160009055905550565b600080546001600160a01b038381166001600160a01b0319831681178455604051919092169283917f8be0079c531659141344cd1fd0a4f28419497f9722a3daafe3b4186f6b6457e09190a35050565b600b5460009081906110896110ac565b6110939190611438565b91505090565b60006110a58284611380565b9392505050565b6000436341c64e6d61303964010000000080826110c986866113ac565b6110d39190611380565b6110dd9190611438565b94505050505090565b600067ffffffffffffffff8084111561110157611101611478565b604051601f8501601f19908116603f0116810190828211818310171561112957611129611478565b8160405280935085815286868601111561114257600080fd5b858560208301376000602087830101525050509392505050565b80356001600160a01b038116811461088857600080fd5b600060208284031215611184578081fd5b6110a58261115c565b600080600080608085870312156111a2578283fd5b6111ab8561115c565b93506111b96020860161115c565b925060408501359150606085013567ffffffffffffffff8111156111db578182fd5b8501601f810187136111eb578182fd5b6111fa878235602084016110e6565b91505092959194509250565b600060208284031215611217578081fd5b5035919050565b60006020828403121561122f578081fd5b5051919050565b60008060408385031215611248578182fd5b82359150602083013567ffffffffffffffff811115611265578182fd5b8301601f81018513611275578182fd5b611284858235602084016110e6565b9150509250929050565b60008151808452815b818110156112b357602081850181015186830182015201611297565b818111156112c45782602083870101525b50601f01601f19169290920160200192915050565b6000602082526110a5602083018461128e565b60208082526019908201527f526166666c652063616d706169676e2066696e69736865642e00000000000000604082015260600190565b6020808252818101527f4f776e61626c653a2063616c6c6572206973206e6f7420746865206f776e6572604082015260600190565b600084825283602083015260606040830152611377606083018461128e565b95945050505050565b600082198211156113935761139361144c565b500190565b6000826113a7576113a7611462565b500490565b60008160001904831182151516156113c6576113c661144c565b500290565b6000828210156113dd576113dd61144c565b500390565b600181811c908216806113f657607f821691505b6020821081141561141757634e487b7160e01b600052602260045260246000fd5b50919050565b60006000198214156114315761143161144c565b5060010190565b60008261144757611447611462565b500690565b634e487b7160e01b600052601160045260246000fd5b634e487b7160e01b600052601260045260246000fd5b634e487b7160e01b600052604160045260246000fdfea2646970667358221220b4aa24e73336a6df6febacd0e8316b6458c799b2fa421fd98992510accab91da64736f6c63430008030033",
  "immutableReferences": {},
  "source": "// SPDX-License-Identifier: MIT\r\npragma solidity ^0.8.3;\r\n\r\nimport \"@openzeppelin/contracts/access/Ownable.sol\";\r\nimport \"@openzeppelin/contracts/token/ERC721/IERC721Receiver.sol\";\r\nimport \"@openzeppelin/contracts/utils/math/SafeMath.sol\";\r\n\r\n/// @title TicketNFT contract interface\r\ninterface ITicketNFT {\r\n    function mintNFT(string memory tokenURI) external returns (uint256);\r\n}\r\n\r\n/// @title RaffleCampaign\r\ncontract RaffleCampaign is Ownable {\r\n\r\n    /// @dev safemath library\r\n    using SafeMath for uint256;\r\n    \r\n    /// @dev declare ticketNFT of ITicketNFT interface\r\n    ITicketNFT ticketNFT;\r\n\r\n    /// @notice raffle's name\r\n    string public raffleName;\r\n\r\n    /// @notice influencer's name\r\n    string public influencer;\r\n\r\n    /// @notice raffle's description\r\n    string public raffleDescription;\r\n\r\n    /// @notice campaign's start time\r\n    uint public campaignStart;\r\n\r\n    /// @notice campaign's end time\r\n    uint public campaignEnd;\r\n\r\n    /// @notice price per ticket\r\n    uint public ticketPrice;\r\n\r\n    /// @notice one owner's maximum purchase amount per raffle\r\n    uint public maxBuyAmount = 9000;\r\n\r\n    /// @notice total number of tickets per raffle\r\n    uint public totalTickets;\r\n\r\n    /// @notice total number of winners per raffle\r\n    uint public totalWinners;\r\n\r\n    /// @notice bought tickets array\r\n    uint[] public tickets;\r\n\r\n    /// @notice drawn tickets array\r\n    uint[] public drawnTickets;\r\n\r\n    /// @notice evaluate campaign to be expired or not\r\n    bool public campaignFinished;\r\n\r\n    /// @notice campaign manager's address\r\n    address public manager;\r\n\r\n    /// @dev mappings of this contract\r\n    mapping (uint => address) public ticketOwner;\r\n    mapping (address => uint) public ownerTicketCount;\r\n\r\n    /// @dev Events of this contract\r\n    event CreateCampaign(bool finished, address tokenaddress);\r\n    event TicketBought(uint ticketNum, uint256 tokenId, string tokenUri);\r\n    event TicketDrawn(uint ticketId, uint ticketNum);\r\n    event DeleteCampaign(bool finished);\r\n\r\n    /// @dev modifier to evaluate campaign's finish\r\n    modifier finishedCampaign(bool _finished) {\r\n        require(!_finished, \"Raffle campaign finished.\");\r\n        _;\r\n    }\r\n\r\n    /// @dev modifier to confirm campaign period\r\n    modifier fixedTimeline() {\r\n        require(block.timestamp > campaignStart && block.timestamp < campaignEnd, \"User can't buy ticket.\");\r\n        _;\r\n    }\r\n\r\n    /// @dev modifier to confirm manager can draw tickets\r\n    modifier isDrawTicket() {\r\n        require(tickets.length >= 1 && block.timestamp > campaignEnd, \"Manager can't draw ticket.\");\r\n        _;\r\n    }\r\n\r\n    /// @notice this contract constructor\r\n    /// @param _ticketNFT is TicketNFT contract address.\r\n    constructor(string memory _raffleName, string memory _influencer, string memory _raffleDescription, uint _campaignStart, uint _campaignEnd, uint _ticketPrice, uint _totalTickets, uint _totalWinners, address _ticketNFT) {\r\n        require(_campaignStart < _campaignEnd, \"Input correct campaign time.\");\r\n        require(_totalTickets > 1 && _totalTickets < 25000, \"Total tickets range is 1 ~ 25000.\");\r\n        require(_totalTickets > _totalWinners, \"Total tickets should be more than total winners.\");\r\n\r\n        campaignFinished = false;\r\n        manager = msg.sender;\r\n\r\n        raffleName = _raffleName;\r\n        influencer = _influencer;\r\n        raffleDescription = _raffleDescription;\r\n        campaignStart = _campaignStart;\r\n        campaignEnd = _campaignEnd;\r\n        ticketPrice = _ticketPrice;\r\n        totalTickets = _totalTickets;\r\n        totalWinners = _totalWinners;\r\n\r\n        ticketNFT = ITicketNFT(_ticketNFT);\r\n\r\n        emit CreateCampaign(campaignFinished, _ticketNFT);\r\n    }\r\n\r\n    /// @notice forwarded in {IERC721Receiver-onERC721Received} to contract recipients.\r\n    function onERC721Received(address, address, uint256, bytes memory) external pure returns (bytes4) {\r\n        return IERC721Receiver.onERC721Received.selector;\r\n    }\r\n\r\n    /**\r\n    @notice function to buy a ticket.\r\n    @dev only users not managers.\r\n    @param _ticketNum is ticket's number to be bought by user.\r\n    @param _tokenUri is ticket NFT ipfs url.\r\n    */\r\n    function buyTicket(uint _ticketNum, string memory _tokenUri) public fixedTimeline finishedCampaign(campaignFinished) {\r\n        require(ticketOwner[_ticketNum] == address(0), \"One ticket can't be sold more than twice.\");\r\n        require(manager != msg.sender, \"Manager can't buy ticket.\");\r\n        require(ownerTicketCount[msg.sender] < maxBuyAmount / ticketPrice, \"Number of tickets one user can buy is limited.\");\r\n        require(tickets.length < totalTickets, \"All the tickets were sold.\");\r\n        \r\n        tickets.push(_ticketNum);\r\n        ticketOwner[_ticketNum] = msg.sender;\r\n        ownerTicketCount[msg.sender] = ownerTicketCount[msg.sender].add(1);\r\n\r\n        uint256 _tokenId = ticketNFT.mintNFT(_tokenUri);\r\n\r\n        emit TicketBought(_ticketNum, _tokenId, _tokenUri);\r\n    }\r\n\r\n    /**\r\n    @notice function to delete a raffle campaign when it is expired.\r\n    @dev only manager.\r\n    */\r\n    function deleteCampaign() public onlyOwner finishedCampaign(campaignFinished) {\r\n        require(tickets.length < 1, \"Raffle campaign can't delete as one more tickets were sold.\");\r\n        require(block.timestamp < campaignEnd, \"Raffle campaign expired can't delete.\");\r\n\r\n        campaignFinished = true;\r\n\r\n        emit DeleteCampaign(campaignFinished);\r\n    }\r\n\r\n    /**\r\n    @notice function to draw a ticket manually.\r\n    @dev only manager.\r\n    @param _ticketNum is a bought ticket number to be drawn by manager.\r\n    */\r\n    function manualDrawTicket(uint _ticketNum) public onlyOwner isDrawTicket finishedCampaign(campaignFinished) {\r\n        uint idx;\r\n        for (uint id = 0; id < tickets.length; id++) {\r\n            if (tickets[id] == _ticketNum) {\r\n                drawnTickets.push(tickets[id]);\r\n                _removeTicket(id);\r\n                idx = id;\r\n            }\r\n        }\r\n        \r\n        emit TicketDrawn(idx, _ticketNum);\r\n    }\r\n\r\n    /**\r\n    @notice function to draw a ticket randomly.\r\n    @dev only manager.\r\n    */\r\n    function autoDrawnTicket() public onlyOwner isDrawTicket finishedCampaign(campaignFinished) {\r\n        uint id = _randomTicketId();\r\n        uint drawnTicketNum = tickets[id];\r\n        drawnTickets.push(drawnTicketNum);\r\n        _removeTicket(id);\r\n\r\n        emit TicketDrawn(id, drawnTicketNum);\r\n    }\r\n\r\n    /**\r\n    @notice internal function to remove a ticket from tickets array sold.\r\n    @param _ticketId is index of ticket sold to be drawn by manager.\r\n    */\r\n    function _removeTicket(uint _ticketId) internal {\r\n        require(_ticketId < tickets.length, \"Tickets array index is out of bound.\");\r\n        \r\n        for (uint i = _ticketId; i < tickets.length - 1; i++) {\r\n            tickets[i] = tickets[i+1];\r\n        }\r\n\r\n        tickets.pop();\r\n    }\r\n\r\n    /// @notice internal function to get a random ticket index.\r\n    function _randomTicketId() internal view returns (uint) {\r\n        uint idx = _random() % tickets.length;\r\n        return idx;\r\n    }\r\n\r\n    /// @notice internal function to get a random number using block number.\r\n    function _random() internal view returns (uint) {\r\n        uint seed = block.number;\r\n\r\n        uint a = 1103515245;\r\n        uint c = 12345;\r\n        uint m = 2 ** 32;\r\n\r\n        return (a * seed + c) % m;\r\n    }\r\n\r\n    /// @notice function to get current drawn ticket number.\r\n    function getCurrentWinner() public view returns (uint) {\r\n        require(drawnTickets.length > 0);\r\n        return drawnTickets[drawnTickets.length - 1];\r\n    }\r\n\r\n    /// @notice function to get current drawn ticket's owner address.\r\n    function getCurrentWinnerAddress() public view returns (address) {\r\n        require(drawnTickets.length > 0);\r\n        uint drawnTicketNum = drawnTickets[drawnTickets.length - 1];\r\n        return ticketOwner[drawnTicketNum];\r\n    }\r\n\r\n    /// @notice function to get total sold tickets count.\r\n    function getBoughtTicketsCount() public view returns (uint) {\r\n        return tickets.length + drawnTickets.length;\r\n    }\r\n\r\n    /// @notice function to get undrawned tickets count in sold tickets.\r\n    function getUndrawnTicketsCount() public view returns (uint) {\r\n        return tickets.length;\r\n    }\r\n\r\n    /// @notice function to get total drawn tickets count.\r\n    function getDrawnTicketsCount() public view returns (uint) {\r\n        return drawnTickets.length;\r\n    }\r\n\r\n    /// @notice function to get one owner's total tickets count.\r\n    /// @param _owner is one owner's address.\r\n    function getOwnerTicketsCount(address _owner) public view returns (uint) {\r\n        return ownerTicketCount[_owner];\r\n    }\r\n\r\n    /// @notice function to get one owner's total tickets price.\r\n    /// @param _owner is one owner's address.\r\n    function getOwnerTicketsPrice(address _owner) public view returns (uint) {\r\n        return ticketPrice * ownerTicketCount[_owner];\r\n    }\r\n\r\n    /// @notice function to get remained tickets count.\r\n    function getRemainTickets() public view returns (uint) {\r\n        return totalTickets - (tickets.length + drawnTickets.length);\r\n    }\r\n\r\n    /// @notice function to get total sold tickets price.\r\n    function getBoughtTicketsPrice() public view returns (uint) {\r\n        return ticketPrice * (tickets.length + drawnTickets.length);\r\n    }\r\n\r\n    /// @notice function to get total tickets price.\r\n    function getTotalTicketsPrice() public view returns (uint) {\r\n        return ticketPrice * totalTickets;\r\n    }\r\n\r\n}\r\n",
  "sourcePath": "E:\\truffle_test_example\\contracts\\RaffleCampagin.sol",
  "compiler": {
    "name": "solc",
    "version": "0.8.3+commit.8d00100c.Emscripten.clang"
  },
  "schemaVersion": "3.4.3",
  "updatedAt": "2021-12-10T20:48:45.931Z",
  "networkType": "ethereum",
  "devdoc": {
    "events": {
      "CreateCampaign(bool,address)": {
        "details": "Events of this contract"
      }
    },
    "kind": "dev",
    "methods": {
      "autoDrawnTicket()": {
        "details": "only manager."
      },
      "buyTicket(uint256,string)": {
        "details": "only users not managers.",
        "params": {
          "_ticketNum": "is ticket's number to be bought by user.",
          "_tokenUri": "is ticket NFT ipfs url."
        }
      },
      "constructor": {
        "params": {
          "_ticketNFT": "is TicketNFT contract address."
        }
      },
      "deleteCampaign()": {
        "details": "only manager."
      },
      "getOwnerTicketsCount(address)": {
        "params": {
          "_owner": "is one owner's address."
        }
      },
      "getOwnerTicketsPrice(address)": {
        "params": {
          "_owner": "is one owner's address."
        }
      },
      "manualDrawTicket(uint256)": {
        "details": "only manager.",
        "params": {
          "_ticketNum": "is a bought ticket number to be drawn by manager."
        }
      },
      "owner()": {
        "details": "Returns the address of the current owner."
      },
      "renounceOwnership()": {
        "details": "Leaves the contract without owner. It will not be possible to call `onlyOwner` functions anymore. Can only be called by the current owner. NOTE: Renouncing ownership will leave the contract without an owner, thereby removing any functionality that is only available to the owner."
      },
      "transferOwnership(address)": {
        "details": "Transfers ownership of the contract to a new account (`newOwner`). Can only be called by the current owner."
      }
    },
    "stateVariables": {
      "ticketNFT": {
        "details": "declare ticketNFT of ITicketNFT interface"
      },
      "ticketOwner": {
        "details": "mappings of this contract"
      }
    },
    "title": "RaffleCampaign",
    "version": 1
  },
  "userdoc": {
    "kind": "user",
    "methods": {
      "autoDrawnTicket()": {
        "notice": "function to draw a ticket randomly."
      },
      "buyTicket(uint256,string)": {
        "notice": "function to buy a ticket."
      },
      "campaignEnd()": {
        "notice": "campaign's end time"
      },
      "campaignFinished()": {
        "notice": "evaluate campaign to be expired or not"
      },
      "campaignStart()": {
        "notice": "campaign's start time"
      },
      "constructor": {
        "notice": "this contract constructor"
      },
      "deleteCampaign()": {
        "notice": "function to delete a raffle campaign when it is expired."
      },
      "drawnTickets(uint256)": {
        "notice": "drawn tickets array"
      },
      "getBoughtTicketsCount()": {
        "notice": "function to get total sold tickets count."
      },
      "getBoughtTicketsPrice()": {
        "notice": "function to get total sold tickets price."
      },
      "getCurrentWinner()": {
        "notice": "function to get current drawn ticket number."
      },
      "getCurrentWinnerAddress()": {
        "notice": "function to get current drawn ticket's owner address."
      },
      "getDrawnTicketsCount()": {
        "notice": "function to get total drawn tickets count."
      },
      "getOwnerTicketsCount(address)": {
        "notice": "function to get one owner's total tickets count."
      },
      "getOwnerTicketsPrice(address)": {
        "notice": "function to get one owner's total tickets price."
      },
      "getRemainTickets()": {
        "notice": "function to get remained tickets count."
      },
      "getTotalTicketsPrice()": {
        "notice": "function to get total tickets price."
      },
      "getUndrawnTicketsCount()": {
        "notice": "function to get undrawned tickets count in sold tickets."
      },
      "influencer()": {
        "notice": "influencer's name"
      },
      "manager()": {
        "notice": "campaign manager's address"
      },
      "manualDrawTicket(uint256)": {
        "notice": "function to draw a ticket manually."
      },
      "maxBuyAmount()": {
        "notice": "one owner's maximum purchase amount per raffle"
      },
      "onERC721Received(address,address,uint256,bytes)": {
        "notice": "forwarded in {IERC721Receiver-onERC721Received} to contract recipients."
      },
      "raffleDescription()": {
        "notice": "raffle's description"
      },
      "raffleName()": {
        "notice": "raffle's name"
      },
      "ticketPrice()": {
        "notice": "price per ticket"
      },
      "tickets(uint256)": {
        "notice": "bought tickets array"
      },
      "totalTickets()": {
        "notice": "total number of tickets per raffle"
      },
      "totalWinners()": {
        "notice": "total number of winners per raffle"
      }
    },
    "version": 1
  }
}