{
  "contractName": "Raffle",
  "abi": [
    {
      "inputs": [
        {
          "internalType": "uint256",
          "name": "_campaginstart",
          "type": "uint256"
        },
        {
          "internalType": "uint256",
          "name": "_campaginend",
          "type": "uint256"
        },
        {
          "internalType": "uint256",
          "name": "_totaltickets",
          "type": "uint256"
        },
        {
          "internalType": "uint256",
          "name": "_totalwinners",
          "type": "uint256"
        }
      ],
      "stateMutability": "nonpayable",
      "type": "constructor"
    },
    {
      "anonymous": false,
      "inputs": [
        {
          "indexed": false,
          "internalType": "uint256",
          "name": "_chosenNumber",
          "type": "uint256"
        },
        {
          "indexed": false,
          "internalType": "address",
          "name": "winner",
          "type": "address"
        }
      ],
      "name": "ChooseWinner",
      "type": "event"
    },
    {
      "inputs": [],
      "name": "joinraffle",
      "outputs": [],
      "stateMutability": "nonpayable",
      "type": "function"
    },
    {
      "inputs": [],
      "name": "generatedRandomNum",
      "outputs": [],
      "stateMutability": "nonpayable",
      "type": "function"
    },
    {
      "inputs": [],
      "name": "getChosenNumber",
      "outputs": [
        {
          "internalType": "uint256",
          "name": "",
          "type": "uint256"
        }
      ],
      "stateMutability": "view",
      "type": "function"
    },
    {
      "inputs": [],
      "name": "getWinnerAddress",
      "outputs": [
        {
          "internalType": "address",
          "name": "",
          "type": "address"
        }
      ],
      "stateMutability": "view",
      "type": "function"
    },
    {
      "inputs": [],
      "name": "getCurrentParticipants",
      "outputs": [
        {
          "internalType": "address[]",
          "name": "",
          "type": "address[]"
        }
      ],
      "stateMutability": "view",
      "type": "function"
    }
  ],
  "bytecode": "0x60806040526000600460006101000a81548160ff0219169083151502179055503480156200002c57600080fd5b5060405162000d3338038062000d33833981810160405281019062000052919062000165565b82841162000097576040517f08c379a00000000000000000000000000000000000000000000000000000000081526004016200008e9062000238565b60405180910390fd5b60018211620000a557600080fd5b6001811015620000b457600080fd5b836000819055508160028190555080600381905550600254600681905550600260078190555033600a60006101000a81548173ffffffffffffffffffffffffffffffffffffffff021916908373ffffffffffffffffffffffffffffffffffffffff160217905550505050506200025a565b600080fd5b6000819050919050565b6200013f816200012a565b81146200014b57600080fd5b50565b6000815190506200015f8162000134565b92915050565b6000806000806080858703121562000182576200018162000125565b5b600062000192878288016200014e565b9450506020620001a5878288016200014e565b9350506040620001b8878288016200014e565b9250506060620001cb878288016200014e565b91505092959194509250565b600082825260208201905092915050565b7f496e70757420636f72726563742063616d706167696e2074696d652100000000600082015250565b600062000220601c83620001d7565b91506200022d82620001e8565b602082019050919050565b60006020820190508181036000830152620002538162000211565b9050919050565b610ac9806200026a6000396000f3fe608060405234801561001057600080fd5b5060043610610074576000357c01000000000000000000000000000000000000000000000000000000009004806310a37c2614610079578063529e004f14610097578063844e774d146100a1578063af0c09db146100ab578063c5991e32146100c9575b600080fd5b6100816100e7565b60405161008e91906105eb565b60405180910390f35b61009f610111565b005b6100a96101cf565b005b6100b361040c565b6040516100c0919061061f565b60405180910390f35b6100d1610416565b6040516100de91906106f8565b60405180910390f35b6000600c60009054906101000a900473ffffffffffffffffffffffffffffffffffffffff16905090565b600460009054906101000a900460ff1615610161576040517f08c379a000000000000000000000000000000000000000000000000000000000815260040161015890610777565b60405180910390fd5b60075460055410156101a8576040517f08c379a000000000000000000000000000000000000000000000000000000000815260040161019f906107e3565b60405180910390fd5b6001600460006101000a81548160ff0219169083151502179055506101cd60006104a4565b565b600460009054906101000a900460ff161561021f576040517f08c379a000000000000000000000000000000000000000000000000000000000815260040161021690610777565b60405180910390fd5b600a60009054906101000a900473ffffffffffffffffffffffffffffffffffffffff1673ffffffffffffffffffffffffffffffffffffffff163373ffffffffffffffffffffffffffffffffffffffff1614156102b0576040517f08c379a00000000000000000000000000000000000000000000000000000000081526004016102a790610875565b60405180910390fd5b60065460016005546102c291906108c4565b10610302576040517f08c379a00000000000000000000000000000000000000000000000000000000081526004016102f990610966565b60405180910390fd5b600860003373ffffffffffffffffffffffffffffffffffffffff1673ffffffffffffffffffffffffffffffffffffffff16815260200190815260200160002060009054906101000a900460ff161561038f576040517f08c379a0000000000000000000000000000000000000000000000000000000008152600401610386906109d2565b60405180910390fd5b6009339080600181540180825580915050600190039060005260206000200160009091909190916101000a81548173ffffffffffffffffffffffffffffffffffffffff021916908373ffffffffffffffffffffffffffffffffffffffff16021790555060056000815480929190610405906109f2565b9190505550565b6000600b54905090565b6060600980548060200260200160405190810160405280929190818152602001828054801561049a57602002820191906000526020600020905b8160009054906101000a900473ffffffffffffffffffffffffffffffffffffffff1673ffffffffffffffffffffffffffffffffffffffff1681526020019060010190808311610450575b5050505050905090565b80600b819055506009600b54815481106104c1576104c0610a3b565b5b9060005260206000200160009054906101000a900473ffffffffffffffffffffffffffffffffffffffff16600c60006101000a81548173ffffffffffffffffffffffffffffffffffffffff021916908373ffffffffffffffffffffffffffffffffffffffff1602179055507f997a1f354f477fd5351e603b865200d746df107e806e64d8bbf80b4031223894600b546009600b548154811061056657610565610a3b565b5b9060005260206000200160009054906101000a900473ffffffffffffffffffffffffffffffffffffffff1660405161059f929190610a6a565b60405180910390a150565b600073ffffffffffffffffffffffffffffffffffffffff82169050919050565b60006105d5826105aa565b9050919050565b6105e5816105ca565b82525050565b600060208201905061060060008301846105dc565b92915050565b6000819050919050565b61061981610606565b82525050565b60006020820190506106346000830184610610565b92915050565b600081519050919050565b600082825260208201905092915050565b6000819050602082019050919050565b61066f816105ca565b82525050565b60006106818383610666565b60208301905092915050565b6000602082019050919050565b60006106a58261063a565b6106af8185610645565b93506106ba83610656565b8060005b838110156106eb5781516106d28882610675565b97506106dd8361068d565b9250506001810190506106be565b5085935050505092915050565b60006020820190508181036000830152610712818461069a565b905092915050565b600082825260208201905092915050565b7f526166666c652043616d706167696e2066696e69736865642100000000000000600082015250565b600061076160198361071a565b915061076c8261072b565b602082019050919050565b6000602082019050818103600083015261079081610754565b9050919050565b7f63757272656e74207061727469636970616e7473206973206c6974746c650000600082015250565b60006107cd601e8361071a565b91506107d882610797565b602082019050919050565b600060208201905081810360008301526107fc816107c0565b9050919050565b7f526166666c652043616d706167696e204f7267616e697a65722063616e27742060008201527f6a6f696e207468697320526166666c652043616d706167696e00000000000000602082015250565b600061085f60398361071a565b915061086a82610803565b604082019050919050565b6000602082019050818103600083015261088e81610852565b9050919050565b7f4e487b7100000000000000000000000000000000000000000000000000000000600052601160045260246000fd5b60006108cf82610606565b91506108da83610606565b9250827fffffffffffffffffffffffffffffffffffffffffffffffffffffffffffffffff0382111561090f5761090e610895565b5b828201905092915050565b7f416c6c207469636b657473206172652073656c6c6564206f7574210000000000600082015250565b6000610950601b8361071a565b915061095b8261091a565b602082019050919050565b6000602082019050818103600083015261097f81610943565b9050919050565b7f596f7520616c7265616479206a6f696e65642100000000000000000000000000600082015250565b60006109bc60138361071a565b91506109c782610986565b602082019050919050565b600060208201905081810360008301526109eb816109af565b9050919050565b60006109fd82610606565b91507fffffffffffffffffffffffffffffffffffffffffffffffffffffffffffffffff821415610a3057610a2f610895565b5b600182019050919050565b7f4e487b7100000000000000000000000000000000000000000000000000000000600052603260045260246000fd5b6000604082019050610a7f6000830185610610565b610a8c60208301846105dc565b939250505056fea26469706673582212207c6a0b91cec5f518d31fb7f2212e74ad7dee2ad29561230c722dff3a27c0786364736f6c634300080a0033",
  "immutableReferences": {},
  "source": "//SPDX-License-Identifier: MIT\r\npragma solidity ^0.8.3;\r\n\r\ncontract Raffle {\r\n    uint256 campaginstart;\r\n    uint256 campaginend;\r\n    uint256 totaltickets;\r\n    uint256 totalwinners;\r\n    \r\n    bool rafflecampaginfinished = false;\r\n    uint256 joinedParticipants;\r\n    uint256 maxParticipants;\r\n    uint256 minParticipants;\r\n    mapping (address => bool) participantsMapping;\r\n    address[] currentparticipants;\r\n    address organizer;\r\n    uint256 chosenNumber;\r\n    address winnerParticipant;\r\n\r\n    event ChooseWinner (uint _chosenNumber, address winner );\r\n\r\n    constructor(uint256 _campaginstart, uint256 _campaginend, uint256 _totaltickets, uint256 _totalwinners) {\r\n        require(_campaginstart > _campaginend, \"Input correct campagin time!\");\r\n        require(_totaltickets > 1);\r\n        require(_totalwinners >= 1);\r\n        campaginstart = _campaginstart;\r\n        totaltickets = _totaltickets;\r\n        totalwinners = _totalwinners;\r\n\r\n        maxParticipants = totaltickets;\r\n        minParticipants = 2;\r\n        organizer = msg.sender;\r\n    }\r\n\r\n    function joinraffle() public {\r\n        require(!rafflecampaginfinished, \"Raffle Campagin finished!\");\r\n        require(msg.sender != organizer, \"Raffle Campagin Organizer can't join this Raffle Campagin\");\r\n        require(joinedParticipants + 1 < maxParticipants, \"All tickets are selled out!\");\r\n        require(!participantsMapping[msg.sender], \"You already joined!\");\r\n\r\n        currentparticipants.push(msg.sender);\r\n        joinedParticipants++;\r\n    }\r\n\r\n    function chooseWinner(uint _chosenNum) internal {\r\n        chosenNumber = _chosenNum;\r\n        winnerParticipant = currentparticipants[chosenNumber];\r\n        emit ChooseWinner(chosenNumber, currentparticipants[chosenNumber]);\r\n    }\r\n\r\n    function generatedRandomNum() public {\r\n        require(!rafflecampaginfinished, \"Raffle Campagin finished!\");\r\n        require(joinedParticipants >= minParticipants, \"current participants is little\");\r\n\r\n        rafflecampaginfinished = true;\r\n\r\n        chooseWinner(0);\r\n    }\r\n\r\n    function getChosenNumber() public view returns (uint) {\r\n        return chosenNumber;\r\n    }\r\n\r\n    function getWinnerAddress() public view returns (address) {\r\n        return winnerParticipant;\r\n    }\r\n\r\n    function getCurrentParticipants() public view returns (address[] memory) {\r\n        return currentparticipants;\r\n    }\r\n}",
  "sourcePath": "E:\\blockchain\\Chris\\web-store\\Smart contract\\Raffle smart contract(truffle and Ganache)\\contracts\\RaffleCampagin.sol",
  "compiler": {
    "name": "solc",
    "version": "0.8.10+commit.fc410830.Emscripten.clang"
  },
  "schemaVersion": "3.4.3",
  "updatedAt": "2021-11-28T08:07:19.181Z",
  "devdoc": {
    "kind": "dev",
    "methods": {},
    "version": 1
  },
  "userdoc": {
    "kind": "user",
    "methods": {},
    "version": 1
  }
}