{
  "contractName": "TicketNFT",
  "abi": [
    {
      "inputs": [],
      "stateMutability": "nonpayable",
      "type": "constructor"
    },
    {
      "anonymous": false,
      "inputs": [
        {
          "indexed": true,
          "internalType": "address",
          "name": "owner",
          "type": "address"
        },
        {
          "indexed": true,
          "internalType": "address",
          "name": "approved",
          "type": "address"
        },
        {
          "indexed": true,
          "internalType": "uint256",
          "name": "tokenId",
          "type": "uint256"
        }
      ],
      "name": "Approval",
      "type": "event"
    },
    {
      "anonymous": false,
      "inputs": [
        {
          "indexed": true,
          "internalType": "address",
          "name": "owner",
          "type": "address"
        },
        {
          "indexed": true,
          "internalType": "address",
          "name": "operator",
          "type": "address"
        },
        {
          "indexed": false,
          "internalType": "bool",
          "name": "approved",
          "type": "bool"
        }
      ],
      "name": "ApprovalForAll",
      "type": "event"
    },
    {
      "anonymous": false,
      "inputs": [
        {
          "indexed": true,
          "internalType": "address",
          "name": "from",
          "type": "address"
        },
        {
          "indexed": true,
          "internalType": "address",
          "name": "to",
          "type": "address"
        },
        {
          "indexed": true,
          "internalType": "uint256",
          "name": "tokenId",
          "type": "uint256"
        }
      ],
      "name": "Transfer",
      "type": "event"
    },
    {
      "inputs": [
        {
          "internalType": "uint256",
          "name": "",
          "type": "uint256"
        }
      ],
      "name": "Items",
      "outputs": [
        {
          "internalType": "uint256",
          "name": "id",
          "type": "uint256"
        },
        {
          "internalType": "address",
          "name": "creator",
          "type": "address"
        },
        {
          "internalType": "string",
          "name": "uri",
          "type": "string"
        }
      ],
      "stateMutability": "view",
      "type": "function"
    },
    {
      "inputs": [
        {
          "internalType": "address",
          "name": "to",
          "type": "address"
        },
        {
          "internalType": "uint256",
          "name": "tokenId",
          "type": "uint256"
        }
      ],
      "name": "approve",
      "outputs": [],
      "stateMutability": "nonpayable",
      "type": "function"
    },
    {
      "inputs": [
        {
          "internalType": "address",
          "name": "owner",
          "type": "address"
        }
      ],
      "name": "balanceOf",
      "outputs": [
        {
          "internalType": "uint256",
          "name": "",
          "type": "uint256"
        }
      ],
      "stateMutability": "view",
      "type": "function"
    },
    {
      "inputs": [
        {
          "internalType": "uint256",
          "name": "tokenId",
          "type": "uint256"
        }
      ],
      "name": "getApproved",
      "outputs": [
        {
          "internalType": "address",
          "name": "",
          "type": "address"
        }
      ],
      "stateMutability": "view",
      "type": "function"
    },
    {
      "inputs": [
        {
          "internalType": "address",
          "name": "owner",
          "type": "address"
        },
        {
          "internalType": "address",
          "name": "operator",
          "type": "address"
        }
      ],
      "name": "isApprovedForAll",
      "outputs": [
        {
          "internalType": "bool",
          "name": "",
          "type": "bool"
        }
      ],
      "stateMutability": "view",
      "type": "function"
    },
    {
      "inputs": [],
      "name": "name",
      "outputs": [
        {
          "internalType": "string",
          "name": "",
          "type": "string"
        }
      ],
      "stateMutability": "view",
      "type": "function"
    },
    {
      "inputs": [
        {
          "internalType": "uint256",
          "name": "tokenId",
          "type": "uint256"
        }
      ],
      "name": "ownerOf",
      "outputs": [
        {
          "internalType": "address",
          "name": "",
          "type": "address"
        }
      ],
      "stateMutability": "view",
      "type": "function"
    },
    {
      "inputs": [
        {
          "internalType": "address",
          "name": "from",
          "type": "address"
        },
        {
          "internalType": "address",
          "name": "to",
          "type": "address"
        },
        {
          "internalType": "uint256",
          "name": "tokenId",
          "type": "uint256"
        }
      ],
      "name": "safeTransferFrom",
      "outputs": [],
      "stateMutability": "nonpayable",
      "type": "function"
    },
    {
      "inputs": [
        {
          "internalType": "address",
          "name": "from",
          "type": "address"
        },
        {
          "internalType": "address",
          "name": "to",
          "type": "address"
        },
        {
          "internalType": "uint256",
          "name": "tokenId",
          "type": "uint256"
        },
        {
          "internalType": "bytes",
          "name": "_data",
          "type": "bytes"
        }
      ],
      "name": "safeTransferFrom",
      "outputs": [],
      "stateMutability": "nonpayable",
      "type": "function"
    },
    {
      "inputs": [
        {
          "internalType": "address",
          "name": "operator",
          "type": "address"
        },
        {
          "internalType": "bool",
          "name": "approved",
          "type": "bool"
        }
      ],
      "name": "setApprovalForAll",
      "outputs": [],
      "stateMutability": "nonpayable",
      "type": "function"
    },
    {
      "inputs": [
        {
          "internalType": "bytes4",
          "name": "interfaceId",
          "type": "bytes4"
        }
      ],
      "name": "supportsInterface",
      "outputs": [
        {
          "internalType": "bool",
          "name": "",
          "type": "bool"
        }
      ],
      "stateMutability": "view",
      "type": "function"
    },
    {
      "inputs": [],
      "name": "symbol",
      "outputs": [
        {
          "internalType": "string",
          "name": "",
          "type": "string"
        }
      ],
      "stateMutability": "view",
      "type": "function"
    },
    {
      "inputs": [
        {
          "internalType": "uint256",
          "name": "index",
          "type": "uint256"
        }
      ],
      "name": "tokenByIndex",
      "outputs": [
        {
          "internalType": "uint256",
          "name": "",
          "type": "uint256"
        }
      ],
      "stateMutability": "view",
      "type": "function"
    },
    {
      "inputs": [
        {
          "internalType": "address",
          "name": "owner",
          "type": "address"
        },
        {
          "internalType": "uint256",
          "name": "index",
          "type": "uint256"
        }
      ],
      "name": "tokenOfOwnerByIndex",
      "outputs": [
        {
          "internalType": "uint256",
          "name": "",
          "type": "uint256"
        }
      ],
      "stateMutability": "view",
      "type": "function"
    },
    {
      "inputs": [],
      "name": "totalSupply",
      "outputs": [
        {
          "internalType": "uint256",
          "name": "",
          "type": "uint256"
        }
      ],
      "stateMutability": "view",
      "type": "function"
    },
    {
      "inputs": [
        {
          "internalType": "address",
          "name": "from",
          "type": "address"
        },
        {
          "internalType": "address",
          "name": "to",
          "type": "address"
        },
        {
          "internalType": "uint256",
          "name": "tokenId",
          "type": "uint256"
        }
      ],
      "name": "transferFrom",
      "outputs": [],
      "stateMutability": "nonpayable",
      "type": "function"
    },
    {
      "inputs": [
        {
          "internalType": "string",
          "name": "uri",
          "type": "string"
        }
      ],
      "name": "mintNFT",
      "outputs": [
        {
          "internalType": "uint256",
          "name": "",
          "type": "uint256"
        }
      ],
      "stateMutability": "nonpayable",
      "type": "function"
    },
    {
      "inputs": [
        {
          "internalType": "uint256",
          "name": "tokenId",
          "type": "uint256"
        }
      ],
      "name": "tokenURI",
      "outputs": [
        {
          "internalType": "string",
          "name": "",
          "type": "string"
        }
      ],
      "stateMutability": "view",
      "type": "function"
    }
  ],
  "bytecode": "0x60806040523480156200001157600080fd5b50604080518082018252601381527f526166666c6543616d706169676e546f6b656e000000000000000000000000006020808301918252835180850190945260038452621490d560ea1b908401528151919291620000729160009162000091565b5080516200008890600190602084019062000091565b50505062000174565b8280546200009f9062000137565b90600052602060002090601f016020900481019282620000c357600085556200010e565b82601f10620000de57805160ff19168380011785556200010e565b828001600101855582156200010e579182015b828111156200010e578251825591602001919060010190620000f1565b506200011c92915062000120565b5090565b5b808211156200011c576000815560010162000121565b600181811c908216806200014c57607f821691505b602082108114156200016e57634e487b7160e01b600052602260045260246000fd5b50919050565b61198180620001846000396000f3fe608060405234801561001057600080fd5b50600436106101165760003560e01c80634f6ccce7116100a2578063a22cb46511610071578063a22cb46514610246578063b88d4fde14610259578063c87b56dd1461026c578063e985e9c51461027f578063fb37e883146102bb57610116565b80634f6ccce7146102055780636352211e1461021857806370a082311461022b57806395d89b411461023e57610116565b806317b47cc4116100e957806317b47cc41461019857806318160ddd146101ba57806323b872dd146101cc5780632f745c59146101df57806342842e0e146101f257610116565b806301ffc9a71461011b57806306fdde0314610143578063081812fc14610158578063095ea7b314610183575b600080fd5b61012e610129366004611695565b6102ce565b60405190151581526020015b60405180910390f35b61014b6102fb565b60405161013a91906117b3565b61016b610166366004611713565b61038d565b6040516001600160a01b03909116815260200161013a565b61019661019136600461166c565b610427565b005b6101ab6101a6366004611713565b61053d565b60405161013a93929190611869565b6008545b60405190815260200161013a565b6101966101da36600461157e565b6105f2565b6101be6101ed36600461166c565b610623565b61019661020036600461157e565b6106b9565b6101be610213366004611713565b6106d4565b61016b610226366004611713565b610775565b6101be61023936600461152b565b6107ec565b61014b610873565b610196610254366004611632565b610882565b6101966102673660046115b9565b610891565b61014b61027a366004611713565b6108c9565b61012e61028d36600461154c565b6001600160a01b03918216600090815260056020908152604080832093909416825291909152205460ff1690565b6101be6102c93660046116cd565b6109eb565b60006001600160e01b0319821663780e9d6360e01b14806102f357506102f382610a84565b90505b919050565b60606000805461030a906118cb565b80601f0160208091040260200160405190810160405280929190818152602001828054610336906118cb565b80156103835780601f1061035857610100808354040283529160200191610383565b820191906000526020600020905b81548152906001019060200180831161036657829003601f168201915b5050505050905090565b6000818152600260205260408120546001600160a01b031661040b5760405162461bcd60e51b815260206004820152602c60248201527f4552433732313a20617070726f76656420717565727920666f72206e6f6e657860448201526b34b9ba32b73a103a37b5b2b760a11b60648201526084015b60405180910390fd5b506000908152600460205260409020546001600160a01b031690565b600061043282610775565b9050806001600160a01b0316836001600160a01b031614156104a05760405162461bcd60e51b815260206004820152602160248201527f4552433732313a20617070726f76616c20746f2063757272656e74206f776e656044820152603960f91b6064820152608401610402565b336001600160a01b03821614806104bc57506104bc813361028d565b61052e5760405162461bcd60e51b815260206004820152603860248201527f4552433732313a20617070726f76652063616c6c6572206973206e6f74206f7760448201527f6e6572206e6f7220617070726f76656420666f7220616c6c00000000000000006064820152608401610402565b6105388383610ad4565b505050565b600b6020526000908152604090208054600182015460028301805492936001600160a01b039092169261056f906118cb565b80601f016020809104026020016040519081016040528092919081815260200182805461059b906118cb565b80156105e85780601f106105bd576101008083540402835291602001916105e8565b820191906000526020600020905b8154815290600101906020018083116105cb57829003601f168201915b5050505050905083565b6105fc3382610b42565b6106185760405162461bcd60e51b815260040161040290611818565b610538838383610c39565b600061062e836107ec565b82106106905760405162461bcd60e51b815260206004820152602b60248201527f455243373231456e756d657261626c653a206f776e657220696e646578206f7560448201526a74206f6620626f756e647360a81b6064820152608401610402565b506001600160a01b03919091166000908152600660209081526040808320938352929052205490565b61053883838360405180602001604052806000815250610891565b60006106df60085490565b82106107425760405162461bcd60e51b815260206004820152602c60248201527f455243373231456e756d657261626c653a20676c6f62616c20696e646578206f60448201526b7574206f6620626f756e647360a01b6064820152608401610402565b6008828154811061076357634e487b7160e01b600052603260045260246000fd5b90600052602060002001549050919050565b6000818152600260205260408120546001600160a01b0316806102f35760405162461bcd60e51b815260206004820152602960248201527f4552433732313a206f776e657220717565727920666f72206e6f6e657869737460448201526832b73a103a37b5b2b760b91b6064820152608401610402565b60006001600160a01b0382166108575760405162461bcd60e51b815260206004820152602a60248201527f4552433732313a2062616c616e636520717565727920666f7220746865207a65604482015269726f206164647265737360b01b6064820152608401610402565b506001600160a01b031660009081526003602052604090205490565b60606001805461030a906118cb565b61088d338383610de4565b5050565b61089b3383610b42565b6108b75760405162461bcd60e51b815260040161040290611818565b6108c384848484610eb3565b50505050565b6000818152600260205260409020546060906001600160a01b031661094a5760405162461bcd60e51b815260206004820152603160248201527f45524337323155524953746f726167653a2055524920717565727920666f72206044820152703737b732bc34b9ba32b73a103a37b5b2b760791b6064820152608401610402565b6000828152600b602052604090206002018054610966906118cb565b80601f0160208091040260200160405190810160405280929190818152602001828054610992906118cb565b80156109df5780601f106109b4576101008083540402835291602001916109df565b820191906000526020600020905b8154815290600101906020018083116109c257829003601f168201915b50505050509050919050565b60006109fb600a80546001019055565b6000610a06600a5490565b9050610a123382610ee6565b604080516060810182528281523360208083019182528284018781526000868152600b8352949094208351815591516001830180546001600160a01b0319166001600160a01b039092169190911790559251805192939192610a7a9260028501920190611405565b5091949350505050565b60006001600160e01b031982166380ac58cd60e01b1480610ab557506001600160e01b03198216635b5e139f60e01b145b806102f357506301ffc9a760e01b6001600160e01b03198316146102f3565b600081815260046020526040902080546001600160a01b0319166001600160a01b0384169081179091558190610b0982610775565b6001600160a01b03167f8c5be1e5ebec7d5bd14f71427d1e84f3dd0314c0f7b2291e5b200ac8c7c3b92560405160405180910390a45050565b6000818152600260205260408120546001600160a01b0316610bbb5760405162461bcd60e51b815260206004820152602c60248201527f4552433732313a206f70657261746f7220717565727920666f72206e6f6e657860448201526b34b9ba32b73a103a37b5b2b760a11b6064820152608401610402565b6000610bc683610775565b9050806001600160a01b0316846001600160a01b03161480610c015750836001600160a01b0316610bf68461038d565b6001600160a01b0316145b80610c3157506001600160a01b0380821660009081526005602090815260408083209388168352929052205460ff165b949350505050565b826001600160a01b0316610c4c82610775565b6001600160a01b031614610cb45760405162461bcd60e51b815260206004820152602960248201527f4552433732313a207472616e73666572206f6620746f6b656e2074686174206960448201526839903737ba1037bbb760b91b6064820152608401610402565b6001600160a01b038216610d165760405162461bcd60e51b8152602060048201526024808201527f4552433732313a207472616e7366657220746f20746865207a65726f206164646044820152637265737360e01b6064820152608401610402565b610d21838383610f00565b610d2c600082610ad4565b6001600160a01b0383166000908152600360205260408120805460019290610d559084906118b4565b90915550506001600160a01b0382166000908152600360205260408120805460019290610d8390849061189c565b909155505060008181526002602052604080822080546001600160a01b0319166001600160a01b0386811691821790925591518493918716917fddf252ad1be2c89b69c2b068fc378daa952ba7f163c4a11628f55a4df523b3ef91a4505050565b816001600160a01b0316836001600160a01b03161415610e465760405162461bcd60e51b815260206004820152601960248201527f4552433732313a20617070726f766520746f2063616c6c6572000000000000006044820152606401610402565b6001600160a01b03838116600081815260056020908152604080832094871680845294825291829020805460ff191686151590811790915591519182527f17307eab39ab6107e8899845ad3d59bd9653f200f220920489ca2b5937696c31910160405180910390a3505050565b610ebe848484610c39565b610eca84848484610fbd565b6108c35760405162461bcd60e51b8152600401610402906117c6565b61088d8282604051806020016040528060008152506110ca565b6001600160a01b038316610f5b57610f5681600880546000838152600960205260408120829055600182018355919091527ff3f7a9fe364faab93b216da50a3214154f22a0a2b415b23a84c8169e8b636ee30155565b610f7e565b816001600160a01b0316836001600160a01b031614610f7e57610f7e83826110fd565b6001600160a01b038216610f9a57610f958161119a565b610538565b826001600160a01b0316826001600160a01b031614610538576105388282611273565b60006001600160a01b0384163b156110bf57604051630a85bd0160e11b81526001600160a01b0385169063150b7a0290611001903390899088908890600401611776565b602060405180830381600087803b15801561101b57600080fd5b505af192505050801561104b575060408051601f3d908101601f19168201909252611048918101906116b1565b60015b6110a5573d808015611079576040519150601f19603f3d011682016040523d82523d6000602084013e61107e565b606091505b50805161109d5760405162461bcd60e51b8152600401610402906117c6565b805181602001fd5b6001600160e01b031916630a85bd0160e11b149050610c31565b506001949350505050565b6110d483836112b7565b6110e16000848484610fbd565b6105385760405162461bcd60e51b8152600401610402906117c6565b6000600161110a846107ec565b61111491906118b4565b600083815260076020526040902054909150808214611167576001600160a01b03841660009081526006602090815260408083208584528252808320548484528184208190558352600790915290208190555b5060009182526007602090815260408084208490556001600160a01b039094168352600681528383209183525290812055565b6008546000906111ac906001906118b4565b600083815260096020526040812054600880549394509092849081106111e257634e487b7160e01b600052603260045260246000fd5b90600052602060002001549050806008838154811061121157634e487b7160e01b600052603260045260246000fd5b600091825260208083209091019290925582815260099091526040808220849055858252812055600880548061125757634e487b7160e01b600052603160045260246000fd5b6001900381819060005260206000200160009055905550505050565b600061127e836107ec565b6001600160a01b039093166000908152600660209081526040808320868452825280832085905593825260079052919091209190915550565b6001600160a01b03821661130d5760405162461bcd60e51b815260206004820181905260248201527f4552433732313a206d696e7420746f20746865207a65726f20616464726573736044820152606401610402565b6000818152600260205260409020546001600160a01b0316156113725760405162461bcd60e51b815260206004820152601c60248201527f4552433732313a20746f6b656e20616c7265616479206d696e746564000000006044820152606401610402565b61137e60008383610f00565b6001600160a01b03821660009081526003602052604081208054600192906113a790849061189c565b909155505060008181526002602052604080822080546001600160a01b0319166001600160a01b03861690811790915590518392907fddf252ad1be2c89b69c2b068fc378daa952ba7f163c4a11628f55a4df523b3ef908290a45050565b828054611411906118cb565b90600052602060002090601f0160209004810192826114335760008555611479565b82601f1061144c57805160ff1916838001178555611479565b82800160010185558215611479579182015b8281111561147957825182559160200191906001019061145e565b50611485929150611489565b5090565b5b80821115611485576000815560010161148a565b600067ffffffffffffffff808411156114b9576114b961191c565b604051601f8501601f19908116603f011681019082821181831017156114e1576114e161191c565b816040528093508581528686860111156114fa57600080fd5b858560208301376000602087830101525050509392505050565b80356001600160a01b03811681146102f657600080fd5b60006020828403121561153c578081fd5b61154582611514565b9392505050565b6000806040838503121561155e578081fd5b61156783611514565b915061157560208401611514565b90509250929050565b600080600060608486031215611592578081fd5b61159b84611514565b92506115a960208501611514565b9150604084013590509250925092565b600080600080608085870312156115ce578081fd5b6115d785611514565b93506115e560208601611514565b925060408501359150606085013567ffffffffffffffff811115611607578182fd5b8501601f81018713611617578182fd5b6116268782356020840161149e565b91505092959194509250565b60008060408385031215611644578182fd5b61164d83611514565b915060208301358015158114611661578182fd5b809150509250929050565b6000806040838503121561167e578182fd5b61168783611514565b946020939093013593505050565b6000602082840312156116a6578081fd5b813561154581611932565b6000602082840312156116c2578081fd5b815161154581611932565b6000602082840312156116de578081fd5b813567ffffffffffffffff8111156116f4578182fd5b8201601f81018413611704578182fd5b610c318482356020840161149e565b600060208284031215611724578081fd5b5035919050565b60008151808452815b8181101561175057602081850181015186830182015201611734565b818111156117615782602083870101525b50601f01601f19169290920160200192915050565b6001600160a01b03858116825284166020820152604081018390526080606082018190526000906117a99083018461172b565b9695505050505050565b600060208252611545602083018461172b565b60208082526032908201527f4552433732313a207472616e7366657220746f206e6f6e20455243373231526560408201527131b2b4bb32b91034b6b83632b6b2b73a32b960711b606082015260800190565b60208082526031908201527f4552433732313a207472616e736665722063616c6c6572206973206e6f74206f6040820152701ddb995c881b9bdc88185c1c1c9bdd9959607a1b606082015260800190565b8381526001600160a01b03831660208201526060604082018190526000906118939083018461172b565b95945050505050565b600082198211156118af576118af611906565b500190565b6000828210156118c6576118c6611906565b500390565b600181811c908216806118df57607f821691505b6020821081141561190057634e487b7160e01b600052602260045260246000fd5b50919050565b634e487b7160e01b600052601160045260246000fd5b634e487b7160e01b600052604160045260246000fd5b6001600160e01b03198116811461194857600080fd5b5056fea26469706673582212200d8649637cc0ad67169476990b325d08a6b65d9e62128391ea947f78bf56b6df64736f6c63430008030033",
  "immutableReferences": {},
  "source": "// SPDX-License-Identifier: MIT\r\npragma solidity ^0.8.0;\r\n\r\nimport \"@openzeppelin/contracts/token/ERC721/ERC721.sol\";\r\nimport \"@openzeppelin/contracts/token/ERC721/extensions/ERC721Enumerable.sol\";\r\nimport \"@openzeppelin/contracts/token/ERC721/extensions/ERC721URIStorage.sol\";\r\nimport \"@openzeppelin/contracts/utils/Counters.sol\";\r\n\r\n/// @title TicketNFT\r\ncontract TicketNFT is ERC721Enumerable {\r\n\r\n    /// @notice counters library\r\n    using Counters for Counters.Counter;\r\n\r\n    /// @dev declare ticket token's id\r\n    Counters.Counter private _tokenIds;\r\n\r\n    /// @notice structure of each ticket item\r\n    struct Item {\r\n        uint256 id;\r\n        address creator;\r\n        string uri; //metadata url\r\n    }\r\n\r\n    /// @dev mapping of this contract\r\n    mapping(uint256 => Item) public Items; //id => Item\r\n\r\n    /// @notice this contract constructor\r\n    constructor () ERC721(\"RaffleCampaignToken\", \"RCT\") {}\r\n\r\n    /**\r\n    @notice function to mint ticket NFT on ethereum\r\n    @dev only users not managers.\r\n    @param uri is NFT's ipfs url\r\n    */\r\n    function mintNFT(string memory uri) external returns (uint256) {\r\n        _tokenIds.increment();\r\n        uint256 newItemId = _tokenIds.current();\r\n        _safeMint(msg.sender, newItemId);\r\n\r\n        Items[newItemId] = Item({\r\n            id: newItemId, \r\n            creator: msg.sender,\r\n            uri: uri\r\n        });\r\n\r\n        return newItemId;\r\n    }\r\n\r\n    /**\r\n    @notice function to get minted token's uri.\r\n    @param tokenId is NFT's id.\r\n    */\r\n    function tokenURI(uint256 tokenId) public view override returns (string memory) {\r\n        require(_exists(tokenId), \"ERC721URIStorage: URI query for nonexistent token\");\r\n\r\n        return Items[tokenId].uri;\r\n    }\r\n\r\n}\r\n",
  "sourcePath": "E:\\web-store\\web-store\\Smart contract\\Raffle smart contract(truffle and Ganache)\\contracts\\ticketNFT.sol",
  "compiler": {
    "name": "solc",
    "version": "0.8.3+commit.8d00100c.Emscripten.clang"
  },
  "schemaVersion": "3.4.3",
  "updatedAt": "2021-12-13T14:55:21.474Z",
  "devdoc": {
    "kind": "dev",
    "methods": {
      "approve(address,uint256)": {
        "details": "See {IERC721-approve}."
      },
      "balanceOf(address)": {
        "details": "See {IERC721-balanceOf}."
      },
      "getApproved(uint256)": {
        "details": "See {IERC721-getApproved}."
      },
      "isApprovedForAll(address,address)": {
        "details": "See {IERC721-isApprovedForAll}."
      },
      "mintNFT(string)": {
        "details": "only users not managers.",
        "params": {
          "uri": "is NFT's ipfs url"
        }
      },
      "name()": {
        "details": "See {IERC721Metadata-name}."
      },
      "ownerOf(uint256)": {
        "details": "See {IERC721-ownerOf}."
      },
      "safeTransferFrom(address,address,uint256)": {
        "details": "See {IERC721-safeTransferFrom}."
      },
      "safeTransferFrom(address,address,uint256,bytes)": {
        "details": "See {IERC721-safeTransferFrom}."
      },
      "setApprovalForAll(address,bool)": {
        "details": "See {IERC721-setApprovalForAll}."
      },
      "supportsInterface(bytes4)": {
        "details": "See {IERC165-supportsInterface}."
      },
      "symbol()": {
        "details": "See {IERC721Metadata-symbol}."
      },
      "tokenByIndex(uint256)": {
        "details": "See {IERC721Enumerable-tokenByIndex}."
      },
      "tokenOfOwnerByIndex(address,uint256)": {
        "details": "See {IERC721Enumerable-tokenOfOwnerByIndex}."
      },
      "tokenURI(uint256)": {
        "params": {
          "tokenId": "is NFT's id."
        }
      },
      "totalSupply()": {
        "details": "See {IERC721Enumerable-totalSupply}."
      },
      "transferFrom(address,address,uint256)": {
        "details": "See {IERC721-transferFrom}."
      }
    },
    "stateVariables": {
      "Items": {
        "details": "mapping of this contract"
      },
      "_tokenIds": {
        "details": "declare ticket token's id"
      }
    },
    "title": "TicketNFT",
    "version": 1
  },
  "userdoc": {
    "kind": "user",
    "methods": {
      "constructor": {
        "notice": "this contract constructor"
      },
      "mintNFT(string)": {
        "notice": "function to mint ticket NFT on ethereum"
      },
      "tokenURI(uint256)": {
        "notice": "function to get minted token's uri."
      }
    },
    "version": 1
  }
}